:020000040800F2
:1000000030090020610200087D33000875330008C4
:1000100079330008590400087D3900080000000009
:100020000000000000000000000000008533000810
:1000300069040008000000008133000889330008CB
:100040007B0200087B0200087B0200087B0200089C
:100050007B0200087B0200087B0200087B0200088C
:100060007B0200087B0200087B0200087B0200087C
:100070007B0200087B0200087B0200087B0200086C
:100080007B0200087B0200087B02000800000000E1
:100090000000000000000000000000007B020008DB
:1000A0007B020008453400087B0200087B02000840
:1000B0007B0200087B0200087B0200087B0200082C
:1000C0007B0200087B0200087B0200087B0200081C
:1000D0007B020008713900087B0200080000000064
:1000E0007B0200087B0200087B0200080000000081
:1000F0000000000000000000000000007B0200087B
:10010000000000007B0200087B0200087B02000860
:1001100000000000000000000000000000000000DF
:100120007B0200087B0200087B0200087B020008BB
:100130007B0200080000000000000000000000003A
:100140000000000000000000000000007B0200082A
:100150007B0200087B0200085D0400087B020008A7
:100160007B0200087B020008000000000000000085
:10017000000000000000000000000000000000007F
:10018000000000007B0200080000000000000000EA
:100190007B02000800F002F800F052F814A696E87E
:1001A000000CB244B344DA4501D100F049F8BAE892
:1001B0000F000FA696E83000A5EB040504EB060738
:1001C000AAEB0704A7F101074FEA15154FEA34140B
:1001D000A4F10104AC4201D300F032F813F0010F96
:1001E00018BFFB1A43F0010300F001F8DBE71847E2
:1001F000703D0000903D0000103A24BF78C878C1DF
:10020000FAD8520724BF30C830C144BF04680C601C
:1002100070470000704700000023002400250026DE
:10022000103A28BF78C1FBD8520728BF30C148BF59
:100230000B6070471FB503F04FFE1FBD10B510BD1A
:1002400000F0D0F81146FFF7F5FF03F099FB00F03E
:10025000EEF803B4FFF7F2FF03BC00F0F5F800007E
:100260000948804709480047FEE7FEE7FEE7FEE74A
:10027000FEE7FEE7FEE7FEE7FEE7FEE70448054986
:10028000054A064B7047000031340008950100080C
:100290003003002030090020300500203005002008
:1002A00053EA020C00F069802DE9F04B4FF0000694
:1002B000002B1FBFB3FA83F503FA05F424FA05F601
:1002C0005E4012BF1643B2FA82F502FA05F4C5F198
:1002D00020051EBF22FA05FC44EA0C04203556EA2C
:1002E000044C4FEA144418BF641C4FF000084FF050
:1002F0000009904271EB030C39D3002919BFB1FA00
:1003000081F701FA07F6B0FA80F700FA07F6C7F1AD
:1003100020071EBF20FA07FC46EA0C062037B6FB72
:10032000F4FCA7EB0507103F07F01F0BCBF12006ED
:100330002CFA06F60CFA0BFB44BFB3460026202F1E
:10034000A4BF5E464FF0000B5BEA060C08BF4FF0FF
:10035000010B19EB0B0948EB0608ABFB027C06FB13
:1003600002CC0BFB03CCC01B71EB0C01C1E70B46AD
:10037000024641464846BDE8F08B13B5084318BF16
:100380004FF0FF300146AFF30080BDE81C407047DE
:100390004FF0000200B5134694469646203922BF1E
:1003A000A0E80C50A0E80C50B1F12001BFF4F7AF69
:1003B000090728BFA0E80C5048BF0CC05DF804EB4B
:1003C000890028BF40F8042B08BF704748BF20F8B9
:1003D000022B11F0804F18BF00F8012B70477047B7
:1003E00070477047754600F02BF8AE460500694629
:1003F000534620F00700854618B020B5FFF73EFFB2
:10040000BDE820404FF000064FF000074FF0000815
:100410004FF0000BAC46ACE8C009ACE8C009ACE852
:10042000C009ACE8C00921F007018D46704710B53E
:100430000446AFF300802046BDE81040FFF709BF37
:10044000004870472800002001491820ABBEFEE795
:100450002600020070470000FEE7000040F2AC10EA
:10046000C2F2000000F0B2BD7047000072B600BFDB
:10047000FEE700009FEDD73A9FEDD71AB4EE430A8E
:10048000F1EE10FAB0EE414A2ADD9FEDD42AB0EE2B
:10049000414AB4EE420AF1EE10FA21DA9FEDD04A59
:1004A000B4EE440AF1EE10FA02D1B7EE004A17E0BA
:1004B000B4EE430AF1EE10FA0CDDB4EE440AF1EEAC
:1004C00010FA07DA9FEDC72A9FEDC73A30EE022AED
:1004D00004E000BF9FEDC53A32EE402A82EE034AA7
:1004E000F0B585B09FEDBE2AB0EE413AB4EE420AB7
:1004F000F1EE10FA8DED004A26DDB5EE400AF1EE80
:1005000010FAB0EE413A1FDA9FEDB43AB4EE430A66
:10051000F1EE10FA02D1B7EE003A15E0B4EE420A5D
:10052000F1EE10FA0EDDB4EE430AF1EE10FA09DA3C
:100530009FEDC82A9FEDAD3A30EE022A82EE033AD3
:1005400002E000BF80EE033A9FEDC34AB0EEC02A3E
:10055000B4EE442AF1EE10FAB0EE412A8DED013AE4
:100560001CDAB5EE400AF1EE10FA03D1B7EE002A1C
:1005700014E000BF9FED992AB4EE420AF1EE10FAA2
:1005800008DDB5EE400AF1EE10FA03DA30EE042A87
:1005900002E000BF34EE402A82EE042AB5EE400AA3
:1005A000F1EE10FAB0EE413A8DED022A24DD9FED16
:1005B000A92AB0EE413AB4EE420AF1EE10FA1BDA83
:1005C000B4EE440AF1EE10FA02D1B7EE003A13E0AD
:1005D000B5EE400AF1EE10FA08DDB4EE440AF1EE91
:1005E00010FA03DA80EE043A06E000BF9FED7F3A8E
:1005F00032EE402A82EE033AB4EE440AF1EE10FAEB
:10060000B0EE415A8DED033A2ADD9FED762AB0EE29
:10061000415AB4EE420AF1EE10FA21DA9FED8D3A1A
:10062000B4EE430AF1EE10FA02D1B7EE005A17E029
:10063000B4EE440AF1EE10FA0CDDB4EE430AF1EE2A
:1006400010FA07DA9FED652A9FED683A30EE020A4C
:1006500004E000BF9FED643A32EE400A80EE035A98
:100660009FEDB73AB0EE410AF4EE430AF1EE10FA0C
:100670008DED045A2CDD9FED592AB0EE410AF4EEBF
:10068000420AF1EE10FA23DA9FEDAE0AF4EE400AC8
:10069000F1EE10FA02D1B7EE000A19E0F4EE430AC7
:1006A000F1EE10FA0EDDF4EE400AF1EE10FA09DA7E
:1006B0009FEDA50A9FEDA52A30EE800A80EE020A82
:1006C00006E000BF9FEDA20A32EE602A82EE000A29
:1006D0009FED9C3AB0EE412AF4EE430AF1EE10FA97
:1006E00026DDF5EE400AF1EE10FAB0EE412A1FDAEF
:1006F0009FED3A2AF4EE420AF1EE10FA02D1B7EE7B
:10070000002A15E0F4EE430AF1EE10FA0EDDF4EEE5
:10071000420AF1EE10FA09DA9FED8C2A9FED8C3A2D
:1007200030EE822A82EE032A02E000BF80EE822AA7
:10073000B0EEE03AB4EE443AF1EE10FAB0EE413ADF
:1007400006DAF5EE400AF1EE10FA19D1B7EE003AEA
:10075000F5EE400AF1EE10FAB0EE415A4EDD9FED93
:10076000E76AB0EE415AF4EE460AF1EE10FA45DAC5
:10077000F4EE440AF1EE10FA12D1B7EE005A3DE061
:100780009FEDDB3AF4EE430AF1EE10FA16DDF5EEDA
:10079000400AF1EE10FA11DA30EE843A10E000BFB0
:1007A000F5EE400AF1EE10FA22DDF4EE440AF1EE25
:1007B00010FA1DDA80EE845A20E000BF34EE603A71
:1007C00083EE043AF5EE400AF1EE10FAB0EE415A2B
:1007D000C5DC13E00060EAC60000000000007AC437
:1007E00000404EC60060EA460040834600A03E46F8
:1007F0009FEDC05A36EE606A86EE055AF4EE440A62
:10080000F1EE10FAB0EE416A2CDD9FEDBB7AB0EE4E
:10081000416AF4EE470AF1EE10FA23DA9FEDB76A67
:10082000F4EE460AF1EE10FA02D1B7EE006A19E0D2
:10083000F4EE440AF1EE10FA10DDF4EE460AF1EEA1
:1008400010FA0BDA9FEDAA4A9FEDAA6A30EE844AAD
:1008500006E000BF00404E4600007A4437EE604A92
:1008600084EE066A43F63C7E43F6237443F60A752B
:10087000DFEDA33A0023EC46C0F6000EB7EE047A93
:10088000C0F60004F5EE001AC0F60005B0EE414ACD
:10089000F0EE410AF0EE412A06E000BF0533192BC5
:1008A0000CF1040C00F00E81DCED004A64EE805A7D
:1008B000F5EE405AF1EE10FA23DD1EF9036031EE39
:1008C000251A06EE906AF8EEE66A66EE876AE65644
:1008D00065EEA66A76EEA22A06EE906AF8EEE66A61
:1008E00066EEA16AEE5665EEA66A76EEA00A06EE00
:1008F000906AF8EEE66A66EEA36A65EEA65A35EEF1
:10090000844A64EE825AF5EE405AF1EE10FA0EEB8C
:1009100003061FDC64EE835AF5EE405AF1EE10FA3E
:1009200047DC64EE855AF5EE405AF1EE10FA6FDCC2
:1009300064EE864AF5EE404AF1EE10FAAEDD97E03D
:1009400000401CC600409CC500401C4600409C4521
:1009500000007A4596F9017031EE251A06EE907A7C
:10096000F8EEE66AE71866EE876A97F9017065EEB9
:10097000A66A76EEA22A06EE907AF8EEE66AEF18FC
:1009800066EEA16A97F9017065EEA66A76EEA00A96
:1009900006EE907AF8EEE66A66EEA36A65EEA65A6F
:1009A00035EE844A64EE835AF5EE405AF1EE10FAC1
:1009B000B7DD96F9027031EE251A06EE907AF8EE60
:1009C000E66AE71866EE876A97F9027065EEA66A2E
:1009D00076EEA22A06EE907AF8EEE66AEF1866EE58
:1009E000A16A97F9027065EEA66A76EEA00A06EE95
:1009F000907AF8EEE66A66EEA36A65EEA65A35EEE0
:100A0000844A64EE855AF5EE405AF1EE10FA8FDD15
:100A100096F9037031EE251A06EE907AF8EEE66A42
:100A2000E71866EE876A97F9037065EEA66A76EEB8
:100A3000A22A06EE907AF8EEE66AEF1866EEA16A50
:100A400097F9037065EEA66A76EEA00A06EE907A34
:100A5000F8EEE66A66EEA36A65EEA65A35EE844ABB
:100A600064EE864AF5EE404AF1EE10FA7FF716AFD3
:100A700096F9046031EE241A05EE906AF8EEE55A14
:100A8000E61865EE875A96F9046064EEA55A75EE8D
:100A9000A22A05EE906AF8EEE55AEE1865EEA15A24
:100AA00096F9046064EEA55A75EEA00A05EE906A08
:100AB000F8EEE55A65EEA35A64EEA54A34EE844A90
:100AC000ECE600BFB5EE401AF1EE10FA05B0BDE855
:100AD000F040D8BF704782EE810A80EE812A84EE12
:100AE000011A80ED000A81ED002A82ED001A70479C
:100AF00000007AC400007A4500401C4600409C4536
:100B00009A99193E70B581B00022009290F83C206D
:100B1000012A03D1022001B070BD00BFD1F800E06E
:100B200001221FFA8EFC4FEA4C0380F83C200EEBAA
:100B30004E0213FA8EF31024BEF1090F88BFA3F101
:100B40001E0288BF0C24036807251E59954026EA1B
:100B500005051D518D681E5905FA02F232431A51DE
:100B60004968062906D801EB81014A1F194651F848
:100B7000345F0EE00C2901EB810105D8A1F12302BD
:100B8000194651F8305F04E0A1F14102194651F8CD
:100B90002C5F1F24944025EA04040C600CFA02F236
:100BA0000C6842F2043CC4F2010C2243ACF54174DF
:100BB000A3420A603ED1BEF1120F07D1DCF800104B
:100BC00041F48001CCF8001034E000BF2EF00101A8
:100BD00010292FD1DCF80010BEF1100F41F40001F4
:100BE000CCF8001026D140F21C01C2F200010968C5
:100BF0004DF68362C4F21B32A1FB0212910C01EB91
:100C00008101490000910099A1B100990139009139
:100C1000009979B1009901390091009951B1009979
:100C200001390091009929B1009901390091009989
:100C30000029EAD1002180F83C10002001B070BDED
:100C4000002804BF0120704710B5016C00293DD079
:100C5000016CC90645D4016C41F202129143023184
:100C600042F204320164C4F20102116821F44031FD
:100C70001160136890E812102343D0F810E013605D
:100C80004A68012422F480724A604A68C0F60074FF
:100C900042EA0E224A604A6822F040724A604A687C
:100CA00042EA0C024A608A6822F400628A60C268E2
:100CB0008B681A438A60826A8B68A24223F0706351
:100CC0008B608B6810D123F0405216E0044600F090
:100CD00065F820460021616484F83C10016CC90667
:100CE000B9D5012153E000BF1A438A608A6822F017
:100CF00040528A60C26A8B681A438A608A6822F00E
:100D000002028A608A68037E90F8204042EA430229
:100D10008A604A6884B142F400624A604A684EF2CE
:100D2000000322F460424A60426ACFF6FF734C68C7
:100D300003EB4232224301E022F400624A60CA6AB5
:100D400040F2000C22F47002CA62C3694269CFF615
:100D5000F07CCC6A0CEB03532343CB628B6823F407
:100D600000738B6090F830308C6844EA43238B60CA
:100D70008B6823F480638B608B6843EA82228A60ED
:100D800000214164026C012363F30102026400222A
:100D900080F83C20BDE810400846704780B586B01A
:100DA00042F200010068C4F201010022884205926B
:100DB000CDE903220292019202D006B080BD00BFAD
:100DC00043F630000092C4F20200436943F480739A
:100DD0004361436903F480730093009B00920368AE
:100DE00043F001030360006800F0010000900098E8
:100DF000012001900320CDE9020201F5604001A924
:100E000000F0CAFA06B080BD10B581B00021009193
:100E100090F83C10012903D1022001B010BD00BFA1
:100E20000468012180F83C10214651F8083FDB0797
:100E300029D10B684DF6836243F001030B6040F249
:100E40001C03C2F200031B68C4F21B32A3FB022383
:100E50009A0C02EB42020092009AA2B1009A013A67
:100E60000092009A7AB1009A013A0092009A52B127
:100E7000009A013A0092009A2AB1009A013A00922F
:100E8000009A002AEAD10A68036CD2070CD143F019
:100E90001001016400F1440101200A681043086058
:100EA000002001B010BD00BF40F2017223EA02022F
:100EB00002F5807202646268520504D5026C012357
:100EC00063F30D320264026C4FF0000C0023D20475
:100ED00044BF426C22F0060342F2000E436480F8E5
:100EE0003CC06FF02200C4F2010E2060DEF8040363
:100EF000C00609D074450BD1DEF8080010F0405F41
:100F000006D14FF08040C8E7086810F0405FF8D085
:100F1000002001B010BD000070B5866D044600F0E1
:100F200019FB94F83510022928D105462068216C58
:100F3000026822F016020260426922F080024261D9
:100F400009B9A16C19B1016821F0080101600168BB
:100F500021F00101016000BF20680068C00715D0C2
:100F600000F0F8FA401B0628F6D320206065032025
:100F700084F83500002184F8341070BD802060654D
:100F80000120002184F8341070BD00BFE06D3F21C6
:100F900001FA00F0B060012084F835000020002143
:100FA00084F8341070BD000090F83510022909D182
:100FB000052180F835100068016821F00101016009
:100FC000002070478021416501207047F0B581B055
:100FD0000021009140F21C01C2F200010B68D0E92F
:100FE000166148F2B51537680822C1F64E358A40B9
:100FF0003A42A3FB05350CD003681C68640708D58A
:101000001C6824F004041C60B260426D42F00102CE
:10101000426501228A403A4208D003685B691B0698
:1010200004D5B260426D42F00202426504228A4059
:101030003A4208D003681B689B0704D5B260426D32
:1010400042F00402426510228A403A4219D00168F7
:101050000B681B0715D5B2600B680A685B0309D4DF
:10106000D20509D40A6822F008020A60016C29B985
:1010700007E000BF110341D4016C11B10446884759
:101080002046C26D202101FA02F33B4243D00168A1
:101090000F68FF063FD5B36090F835700B68052FD9
:1010A0001CD123F016030B604B6923F080034B61C6
:1010B000036C0BB9836C1BB10B6823F008030B6046
:1010C0003F219140B160012180F83510016D00226F
:1010D000002980F8342054D158E000BF0A685B032F
:1010E00010D4D20512D40A6822F010020A6001213D
:1010F00080F83510002180F8341007E0816C002959
:10110000BCD1BEE7110301D4416C00E0C16B11B149
:10111000044688472046416DC1B3416DC9072ED0B2
:10112000052180F835100168AA0A0B6823F0010335
:101130000B60009B0133934200931AD80B68DB07C6
:1011400017D0009B01339342009312D80B68DB0742
:101150000FD0009B0133934200930AD80B68DB0742
:1011600007D0009B01339342009302D80B68DB0742
:10117000DFD1012180F83510002180F83410C16CD6
:1011800021B101B0BDE8F040084700BF01B0F0BD9B
:101190002DE9F041044600F0DDF9ECB105460220EE
:1011A00084F835000020216884F83400086820F0B5
:1011B0000100086021680868C00711D000F0CAF972
:1011C000401B0528F6D9032520230320636584F8F6
:1011D0003550BDE8F08100BF0120BDE8F08100BFBF
:1011E000086848F23F02CFF21002D4E9013500EA64
:1011F000020C04F10C0898E8C10143EA0C032B43EC
:101200001843D4E9072E304338431043626A40EA5A
:101210000E00042A40EA08031CD1206BD4E90A2EF0
:1012200040EA0E00184308604869BEF1000F20F044
:10123000030040EA020040F0040C11D0B8F5005F52
:1012400036D0B8F1000F45D1022A46D0012A3BD052
:1012500032B942E00B60486920F0070040EA020C16
:1012600001F0F8004AF6AB221038CAF6AA22A0FB19
:1012700002231A0943F65573C1F814C0C0F60003DF
:101280009A5C40F2FF335F284FF03F0021EA0301F0
:1012900000FA02F088BF0431C4E916128860002306
:1012A00001250020636584F83550BDE8F08100BF5A
:1012B000032AD5D8012540230120DFE802F0030EE0
:1012C000030500BF82E700BFAEF1C070B0FA80F046
:1012D000400904E0032A04D3C2D1CEF30060002801
:1012E000BED0012540230120636584F83550BDE858
:1012F000F081000090F834C0BCF1010F04BF02205F
:10130000704770B54FF0010C80F834C0D0F858E049
:1013100090F835C0BCF1010F38D14FF0020C80F8C5
:1013200035C04FF0000CC0F854C0D0F800C084683D
:10133000056CC06DDCF80060402C26F48026CCF8EB
:101340000060CCF804300B4604BF13460A463F2128
:1013500001FA00F0CCF80830CCF80C20CEF80800E8
:10136000DCF8000040F01600CCF800002DB1DCF8ED
:10137000000040F00800CCF80000DCF8000040F06D
:101380000100CCF80000002070BD00BF002180F8F3
:101390003410022070BD00002DE9F04F83B000F141
:1013A000200200F13E4741F20005009207F1FF776D
:1013B000C4F2020507224FEAB726A84208BF04225A
:1013C00000254FF000084FF00009042E38BF4FEA07
:1013D000B72201920AE000BF09F1010908F10208F1
:1013E000B9F1100F05F1040500F0A2800F68012289
:1013F00002FA09FE17EA0E0AEED0D1F804C0032261
:101400000CF003077E1E02FA08F4012E6FEA040BAB
:1014100012D88468CE6804EA0B0406FA08F634434E
:101420008460446824EA0E06CCF3001404FA09F43C
:101430002643466004E000BF032F01D103271EE0CE
:10144000C6688C6806EA0B0604FA08F42643022FE5
:10145000C66014D16FF00302009E02EA590756F8E5
:1014600007C005F01C040F220B69A2402CEA0202FF
:10147000A3401A43F251D1F804C00CF003070268EC
:1014800007FA08F302EA0B021A431CF4403F026019
:10149000A2D0002243F644030292C4F202031A6867
:1014A00043F6004442F480421A601A68C4F2010410
:1014B00002F480420292029A29F003024FF6084C8D
:1014C0002244CFF6FF7C52F80C3005F00C070F26B3
:1014D000BE40B343019E06FA07F73B4342F80C3087
:1014E000A2684B6842EA0A0743F60C4CDE0258BF7A
:1014F00022EA0A07A760C4F2010CDCF800209E0271
:1015000042EA0A0758BF22EA0A07CCF8007062686C
:101510009E0342EA0A0758BF22EA0A076760226868
:10152000DB0342EA0A0758BF22EA0A07276053E7AB
:1015300003B0BDE8F08F0000426902EA0103914365
:1015400041EA034181617047002A08BF09048161B3
:101550007047000040F22C30C2F200000068704773
:1015600040F2140040F22C31C2F20000C2F200013D
:1015700000780A68104408607047000080B543F6A0
:101580000040C4F20200016841F40071016001688A
:1015900041F480610160016841F4807101600320C1
:1015A00000F086F80F2000F005F800F027F8002082
:1015B00080BD000070B540F21406C2F2000640F291
:1015C0001C013278C2F200014FF47A730968B3FB50
:1015D000F2F20446B1FBF2F1084600F061FB0F2C79
:1015E0004FF0010508D838B94FF0FF3021460022EE
:1015F000002500F031F87460284670BD82B00020EC
:1016000043F640010190C4F202014A6842F480426C
:101610004A604A6802F480420192019A0090086888
:1016200040F080500860086800F0805000900098FA
:1016300002B07047002848BF704700F01F01012228
:1016400002FA01F11C2202EAD0004EF20012CEF2A0
:10165000000281507047000010B54EF60C5CCEF2CF
:10166000000CDCF80030C3F3022E8EF00704042CCB
:1016700028BF0424BEF103034FF0FF3E0EFA04F42A
:1016800038BF0023A14399400EFA03F39A43114354
:1016900000F00F0200F160430901043A03F56443CE
:1016A0006244002848BF02F10C03197010BD00000D
:1016B0004EF60C51CEF200010A684FF6FF031A40B5
:1016C00060F30A2242F0806040F0FD7008607047CD
:1016D000002804BF012070472DE9F04143F60808B7
:1016E000C4F202080446D8F8F8030D4600F00700DB
:1016F000814207D988F8F853D8F8F80300F00700BA
:10170000A84277D12068810717D5410705D5D8F8B9
:10171000001041F4E051C8F80010010705D5D8F8D1
:10172000001041F46041C8F80010D8F80010A26819
:1017300021F0F0011143C8F80010C00740D1D8F8DB
:10174000F80300F00700854207D288F8F853D8F86C
:10175000F80300F00700A8424CD12068410707D5E4
:10176000D8F80010E26821F4E0511143C8F80010E5
:10177000000708D5D8F80000216920F4604040EA4D
:10178000C100C8F8000000F07DF8D8F8001043F65A
:10179000F262C1F30311C0F60002515C40F21C0278
:1017A00020FA01F140F21800C2F200000068C2F213
:1017B00000021160FFF7FEFE0020BDE8F08100BFCF
:1017C0006068811E022907D258F8081C89015CBF95
:1017D0000120BDE8F08111E0012807D158F8081C6C
:1017E00089035CBF0120BDE8F08107E058F8081CC0
:1017F000890703D40120BDE8F08100BFD8F80010AC
:1018000021F003010843C8F80000FFF7A3FE0646D5
:1018100041F28837D8F80000616800F00C00B0EBA6
:10182000810F8CD0FFF796FE801BB842F2D90320BF
:10183000BDE8F08140F21C0043F60801C2F200004E
:10184000C4F202010068096843F60272C1F3822102
:10185000C0F60002515CC8407047000040F21C0016
:1018600043F60801C2F20000C4F2020100680968F0
:1018700043F60272C1F34231C0F60002515CC84027
:101880007047000010B543F60404C4F20204616816
:10189000C1F3810142F20040C0F2F400DFE801F040
:1018A00002040A0210BD00BF47F64000C0F27D10DE
:1018B00010BD00BF206821682368490247F6400137
:1018C000C0F27D1100F03F02C3F388105CBF42F20A
:1018D0000041C0F2F401A1FB00010023FEF7E0FC8F
:1018E00021680222C1F3014102EB4101B0FBF1F09A
:1018F00010BD0000002804BF012070472DE9F04111
:1019000082B00446007843F60006C007C4F202061F
:101910000CD0B06800F00C00042840F081803068E2
:10192000800303D56068002800F068812078800774
:101930001BD5B06810F00C0F09D0B06800F00C0097
:10194000082840F087807068400200F1838030688A
:10195000800703D5E068012840F050813068216994
:1019600020F0F80040EAC10030602078000713D46E
:10197000207840072AD4A569002D00F03A81B0688C
:1019800000F00C00082840F0A580012D40F00E81E9
:10199000012002B0BDE8F0816069002800F082807B
:1019A0000020C4F247200121C0F8801EFFF7D2FDBD
:1019B000054600BF706F8007DAD4FFF7CBFD401BF0
:1019C0000228F7D9032002B0BDE8F081306C5FEA4D
:1019D000C0080AD400200190306C40F08050306480
:1019E000306C00F080500190019847F20007C4F27B
:1019F00000073868C00547D4386840F48070386004
:101A0000FFF7A8FD054600BF3868C0053CD4FFF7C6
:101A1000A1FD401B0228F7D9032002B0BDE8F081E8
:101A2000B06800F00C00082803D1706840023FF550
:101A300076AF61683068B1F5803F07D0B1F5A02F6F
:101A400040F09A8040F480203060306840F480306C
:101A500030609AE0E068002840F20000C4F24720BD
:101A60005CD001210160FFF775FD054630688007F5
:101A70003FF574AFFFF76EFD401B0228F6D9032037
:101A800002B0BDE8F08100BFA168306F012905D028
:101A9000052955D140F004003067306F40F0010057
:101AA000306756E00020C4F247200021C0F8801EB5
:101AB000FFF750FD054600BF706F80077FF558AFF8
:101AC000FFF748FD401B0228F6D9032002B0BDE80D
:101AD000F08100BF0027C4F2472700203866FFF7D7
:101AE00039FD022D05460DD13068800140F18A8014
:101AF000FFF730FD401B02284FF00300F4D902B07D
:101B0000BDE8F0813068800173D5FFF723FD401BED
:101B100002284FF00300F5D9F1E700BF0021016072
:101B2000FFF718FD054600BF306880077FF51DAF41
:101B3000FFF710FD401B02284FF00300F4D9DEE749
:101B400020F001003067306F002920F0040030677A
:101B50007AD0FFF7FFFC054641F28837306F8007E7
:101B600000F18480FFF7F6FC401BB842F6D9032051
:101B700002B0BDE8F08100BF20F4803030603068F2
:101B8000002920F4802030607AD0FFF7E3FC05467E
:101B9000306880033FF5CAAEFFF7DCFC401B6428C9
:101BA000F6D9032002B0BDE8F08100BF7068E1699A
:101BB00000F480028A4221D1216A00F03F028A4269
:101BC0001CD147F6C071626A0140B1EB821F15D18A
:101BD000A16A4FF6FF73C903994300F44032A1F59F
:101BE00080318A420AD1E16A00F07060B0EB016F87
:101BF00004D1002002B0BDE8F08100BF012002B096
:101C0000BDE8F08104F11C052FCD084340EA8210A5
:101C1000D9034FF6FF729143A1F5803140EA056088
:101C20000843706001203866FFF794FC044600BF4B
:101C300030688001DDD4FFF78DFC001B02284FF0D7
:101C40000300F5D95BE700BFFFF784FC054641F2CE
:101C5000883700BF306F800708D5FFF77BFC401B3B
:101C6000B8424FF00300F5D949E700BFB8F1000FC3
:101C70003FF581AE306C20F0805030647BE600BFD1
:101C8000FFF768FC054600BF306880037FF54EAE65
:101C9000FFF760FC401B64284FF00300F4D92EE7E7
:101CA000411E0020B0EB116F1CBF012070474EF2A7
:101CB0001002CEF2000251604EF62351CEF2000126
:101CC000F0230B700721906011607047704700008F
:101CD0007047000090F83C20012A4FF0020241D0EA
:101CE00010B580F83D200268D2F804E0D2F808C0B0
:101CF0000C682EF07003234340F6FF34C4F2000456
:101D0000A242536010DCB2F1804F1ED040F200437B
:101D1000C4F200039A4218D040F60003C4F2000354
:101D20009A4212D016E000BF40F60043C4F200030E
:101D30009A420AD044F20003C4F201039A4204D04A
:101D40000023C4F201039A4204D149682CF08003B5
:101D5000194391600121002280F83D1080F83C2059
:101D6000BDE8104010467047002804BF01207047AE
:101D700010B5044690F83D0028B9002084F83C00D6
:101D8000204600F01FF8022084F83D002068211D45
:101D900001F05EFB012084F8460084F83E0084F8E0
:101DA0003F0084F8400084F8410084F8420084F841
:101DB000430084F8440084F8450084F83D00002086
:101DC00010BD0000006844F20041C4F201018842E5
:101DD00018BF704780B582B00020019043F64400E0
:101DE000C4F202000168002241F400310160006881
:101DF000002100F40030019001981920FFF72CFC1D
:101E0000192002B0BDE88040FFF714BC90F83D10E7
:101E100001291CBF01207047022180F83D10006895
:101E200040F6FF32C168C4F20002904241F0010165
:101E3000C1600FDCB0F1804F1DD040F20041C4F210
:101E40000001884217D040F60001C4F20001884228
:101E500011D017E040F60041C4F2000188420AD0D8
:101E600044F20001C4F20101884204D00021C4F20E
:101E70000101884206D1816801F00701062904BFEB
:101E800000207047016841F00101016000207047A7
:101E9000002804BF012070472DE9F047044690F860
:101EA0003D000D4628B9002084F83C00204600F093
:101EB00049F8022084F83D00206844F20702816856
:101EC00091438160211D01F0C3FA20684FF6FF782D
:101ED00081688269D0F820C0D5E9003ED5E9026A60
:101EE00043EA0109AB6922EA080246EA03234FF6F6
:101EF000FC46B343D5E9076742EA0A0229691A4357
:101F000042EA062242EA01112CF0AA026B6942EA77
:101F10000E0241EA073142EA0312C0F808908161DB
:101F20000262012084F8460084F83E0084F83F00F5
:101F300084F8420084F8430084F83D000020BDE8A6
:101F4000F087000080B586B040F200410068C4F21E
:101F50000001002288420592CDE9032202920192FB
:101F600002D006B080BD00BF43F630000092C4F23C
:101F70000200036943F002030361036903F00203F3
:101F80000093009B0092036843F001030360006824
:101F900000F0010000900098C02001900220CDE9DF
:101FA0000202CDE9042001F5FE3001A9FFF7F4F9A2
:101FB00006B080BD80B590F83E2090F83F3090F894
:101FC00042E090F843C004290AD0B9B9012A4FF081
:101FD000010208BFBEF1010F34D0104680BD00BF22
:101FE000012B4FF0010208BFBCF1010FF5D1022116
:101FF00080F83F1080F8431000681EE0012A4FF07F
:10200000010208BF012BE8D1BEF1010FE5D1BCF1FF
:10201000010FE2D1022280F83E2080F83F2080F8B4
:10202000422080F8432091B10068016A21F001014B
:102030000162016A41F00101016210216FF010029A
:1020400009E000BF022180F83E1080F842100068CD
:1020500001216FF00102036A1A400262026A114311
:1020600001620168002241F001010160104680BD5B
:102070007047000070B504460068C5680669B1077E
:1020800016D515F0020113D06FF002010161012194
:1020900021778069800703D02046FFF7E9FF05E03C
:1020A000204600F0BDF8204600F002FA002020771C
:1020B000700719D515F0040016D020686FF00401E0
:1020C000016102212177806910F4407F04D020460D
:1020D000FFF7CEFF06E000BF204600F0A1F8204643
:1020E00000F0E6F900202077300717D515F008003A
:1020F00014D020686FF00801016104212177C069C4
:10210000800703D02046FFF7B3FF05E0204600F02C
:1021100087F8204600F0CCF900202077F00619D58A
:1021200015F0100016D020686FF010010161082131
:102130002177C06910F4407F04D02046FFF798FF54
:1021400006E000BF204600F06BF8204600F0B0F932
:1021500000202077F00718BF15F0010002D13006EB
:1021600009D412E020686FF001010161204600F0FF
:1021700019FA300609D515F0800006D020686FF0F6
:10218000800101612046FFF7A1FD700609D515F019
:10219000400006D020686FF040010161204600F049
:1021A00057FCB00658BF70BD15F0200008D021685C
:1021B0006FF0200220460A61BDE87040FFF788BD3D
:1021C00070BD000080B586B040F600010068C4F222
:1021D0000001002288420592CDE903220292019279
:1021E00002D006B080BD00BF43F630000092C4F2BA
:1021F0000200036843F002030360006800F002007D
:1022000000900098C02001900220CDE90202CDE9A3
:10221000042001F5FE3001A9FFF7BEF806B080BD2D
:102220007047000090F83C30012B04BF022070473B
:102230004FEAB202032A00F2ED802DE9F043DFE815
:1022400002F003A3397300BF036800261D6A1A6AEF
:10225000C4F2010622F001021A621A465C6852F8C2
:1022600018CFB3428E68D1F800E025F0020545EAA8
:1022700006050CD1CE68D1E9057824F4407425F028
:102280000C0526F004063C43354344EA08042CF0D0
:10229000730747EA0E075C609F614F6809695F63D7
:1022A0001D629F6947F008079F619F6927F0040737
:1022B0009F61A4E0036800261D6A1A6AC4F2010641
:1022C00022F480721A621A46D3F804C052F81CEF46
:1022D000B3428E680C6825F4007545EA06250FD1D7
:1022E000CE68D1E90598360240F2FF4725F44065F3
:1022F000BE4335432CF4405748EA090647EA061C1A
:102300002EF073072743C3F804C0DF614F680969E3
:10231000DF631D62DF6947F00807DF61DF6927F0CF
:102320000407DF616BE000BF03680027D3F820C01B
:102330001A6AC4F2010722F480521A621A465C68D3
:1023400052F81C5FD1F800E08E68BB4204D14F699F
:1023500024F4804444EA87142CF4005747EA0637F3
:1023600025F4E64646EA0E265C60DE614E680969A1
:102370001E641F62DF6947F40067DF61DF6927F4CD
:102380008067DF613AE000BF036800261D6A1A6AB1
:10239000C4F2010622F010021A621A46D3F804C0F1
:1023A00052F8184FB3428E68D1F800E025F02005AE
:1023B00045EA06150FD1CE68D1E905986FF04007C0
:1023C00025F0C00507EA061635432CF4406748EAB5
:1023D000090647EA860C24F4E64444EA0E27C3F8CB
:1023E00004C09F614F6809699F631D629F6947F43C
:1023F00000679F619F6927F480679F6109021368E6
:10240000194311600021BDE8F043002280F83C2010
:10241000084670470121002280F83C20084670479A
:10242000002804BF0120704710B5044690F83D0015
:1024300028B9002084F83C00204600F01FF8022054
:1024400084F83D002068211D01F002F8012084F885
:10245000460084F83E0084F83F0084F8400084F889
:10246000410084F8420084F8430084F8440084F872
:10247000450084F83D00002010BD0000006840F6D3
:102480000001C4F20001884218BF704781B00020EB
:10249000009043F64000C4F20200016841F00401DC
:1024A0000160006800F004000090009801B07047DF
:1024B00070470000C1B1042908D0082914BF412287
:1024C0004022825C012A05D016E000BF3F22825CD8
:1024D000012A11D10222082910D0042914BF80F842
:1024E000412080F83F200BE090F83E20012A03D1E4
:1024F000022280F83E2003E00120704780F840204F
:10250000006801F01F010122036A8A4023EA0201E8
:102510000162036A4421C4F201011A43A1F1440398
:102520009842026216D040F6FF31C4F200018842A0
:102530001ADCB0F1804F28D040F20041C4F2000113
:10254000884222D040F60001C4F2000188421CD02B
:1025500022E000BF0A6842F400420A6040F6FF3100
:10256000C4F200018842E4DD40F60041C4F20001FB
:1025700088420AD044F20001C4F20101884204D02A
:102580000021C4F20101884206D1816801F00701EF
:10259000062904BF00207047016841F00101016075
:1025A00000207047006844F20041C4F201018842F3
:1025B00018BF704770B52DED068B84B040F25420E3
:1025C000C2F20000006840F28805C2F20005406ACD
:1025D000E9889FEDE51A411A0AB200EE102AB8EE1A
:1025E000C00A80EE010AE880A86840F2000600FAFE
:1025F00081F0A860C2F2000696ED001AB7EE002A3C
:1026000095ED043A32EE412A40F2641422EE032A98
:10261000C2F2000421EE000A30EE020A204685EDE7
:10262000040AFEF7F1FB20684FF61C41CFF6FF715C
:10263000026892075CBF02685FEA82720AD402688D
:1026400092075CBF02685FEA827203D4002901F13D
:102650000401EDD190ED130A9FEDEF1AB8EE400A98
:102660009FEDEE2A20EE010A80EE020A9FEDF01A9D
:102670009FEDF19A9FEDF1AA30EE010AB1EE041A36
:1026800080EE010A9FEDEB1A20EE010A95ED0C1A7F
:1026900020EE0A0A21EE091A30EE010A85ED0C0A35
:1026A0002878002844D095ED030A95ED021A287980
:1026B000B8EEC11A0130C1B230EE418A0929287141
:1026C00044D900240394CDE9014495ED040A03A8FC
:1026D000F1EE400A02A901AAB0EE480AFDF7CAFECF
:1026E0009DED030A96ED031A96ED043A9DED014A1D
:1026F00031EE002A33EE040A95ED0B3A9DED024AC5
:102700009FEDCF5AB0EEC81A33EE044A9FEDCD3A92
:10271000B4EE451A86ED012A86ED020AF1EE10FAB2
:10272000B8BFB0EE443A85ED093A2C7116E000BF0F
:1027300040F2E800C2F200000021C162C16040F234
:102740009C20C2F200000068E9643AE096ED012A9C
:1027500096ED020A95ED093AB0EEC81A40F2E8008B
:10276000C2F2000090ED084A90ED095A90ED0A6A15
:1027700024EE094A22EE0A2A32EE042A25EE094AFC
:1027800023EE0A3A33EE044A26EE093A20EE0A0A0C
:1027900030EE035AB0EE080AB4EE401AF1EE10FA29
:1027A00080ED082A80ED094A80ED0A5A12DA0021EC
:1027B000C162C16040F29C20E964A961C2F20000DC
:1027C00000684163816304B0BDEC068BBDE87040D6
:1027D000704700BF95ED030A95ED021A90ED0F6A60
:1027E000B8EEC11A30EE410A90ED0C1A62EE000A02
:1027F00030EE411A81EE067A90ED0B2A20EE061A91
:1028000031EE022A24EE024A90ED0E3A30EE844A6E
:1028100080ED0B2A80ED0C0A25EE075A34EE054AAE
:10282000B4EE434AF1EE10FA06DDB5EE400AF1EEE1
:1028300010FA11DC14E000BF90ED0D5AB0EE443AEE
:10284000B4EE454AF1EE10FA0ADAB5EE400AF1EEBE
:1028500010FAB0EE453A03DA32EE410A80ED0B0A87
:1028600085ED053A95ED050A95ED041A90ED072AD8
:1028700030EE410A90ED041A90ED036A30EE411AF1
:1028800081EE023A90ED001A90ED014A20EE017AB5
:1028900020EE021A90ED025A31EE062A22EE044A88
:1028A00037EE044A80ED032A80ED040A25EE035A30
:1028B00090ED063A34EE054AB4EE434AF1EE10FAD2
:1028C00006DDB5EE400AF1EE10FA11DC14E000BFAF
:1028D00090ED055AB0EE443AB4EE454AF1EE10FAE6
:1028E0000ADAB5EE400AF1EE10FAB0EE453A03DA34
:1028F00032EE410A80ED030A85ED0D3A95ED0D0AA1
:1029000095ED0C1A95ED172A30EE410A95ED141A43
:1029100095ED136A30EE411A81EE023A95ED101AE8
:1029200095ED114A20EE017A20EE021A95ED125A29
:1029300031EE062A22EE044A37EE044A85ED132AC8
:1029400085ED140A25EE035A95ED163A34EE054A44
:10295000B4EE434AF1EE10FA08DDB5EE400AF1EEAE
:1029600010FA13DC16E000BF6F12833A95ED155A8A
:10297000B0EE443AB4EE454AF1EE10FA0ADAB5EE9A
:10298000400AF1EE10FAB0EE453A03DA32EE410AAF
:1029900085ED130A85ED063A95ED060A4FF61842C5
:1029A000BDEEC00A10EE100A00B20146B0F57A7F03
:1029B000A8BF4FF47A7109B2CFF6FF7211F57A7F92
:1029C000C8BF0A4611B282EAE132A2EBE13189B214
:1029D00000EE101A9FED1C1AB8EE400A9FED1B2A5C
:1029E00020EE010A80EE020AB0F1FF3FBCEEC00A01
:1029F00010EE101A14DD40F29C22C2F2000212689E
:102A00000023002853630CBF9363916304B0BDECB3
:102A1000068BBDE8704070473D0A574000F07F4587
:102A200040F29C20C2F20000006841630021C9E628
:102A30003D0AD7BF00007AC46666663FCDCCCC3D68
:102A400000004844000000000038834500007A443C
:102A50007047000070470000006841F20001C4F2B6
:102A60000101884218BF704783B0002302930168B8
:102A700040F2880C02914168C2F2000C0291029966
:102A8000019301680122019141680191019900932C
:102A90000168009140680CF103010090009840F239
:102AA000E420C2F200008CF8023003B000F05CBBFE
:102AB000B0B582B001680A68CC684B6902F02F0596
:102AC000202D04F0200505D125B102B0BDE8B040AD
:102AD00000F05ABE5FEA027C1EBF03F0010E04F450
:102AE000907313EB0E0341D1036BD50618D5012B60
:102AF00016D114F0100313D0002201920A6801923B
:102B00004A680192019A496949064BD4818DC28D68
:102B1000C38D002B18BF914240F0068202B0B0BDB9
:102B200013062DD514F080032AD090F84120212AD5
:102B3000F4D18268B2F5805F03D10269002A00F007
:102B40007982026A531C036212784A60C28C013A8D
:102B50001304C284E2D1C86820F08000C860C8684D
:102B600040F04000C86002B0B0BD00BFD30718BF3E
:102B700014F4807340F0E280530700F1E580EAE04E
:102B80005206CBD514F04002C8D0CA6822F04002E9
:102B9000CA60202180F8411002B0BDE8B04000F0CA
:102BA000E5BB00BFC26B11684B68858D99B20029E7
:102BB00000F0B480A94280F0B180C385D169B1F53D
:102BC000807F00F0A080016851E8031F026821F4B3
:102BD000807142E80313DBB1016851E8031F02680A
:102BE00021F4807142E8031393B1016851E8031F97
:102BF000026821F4807142E803134BB1016851E887
:102C0000031F026821F4807142E80313002BDAD11C
:102C1000016851E8051F026821F0010142E805132F
:102C2000BBB3016851E8051F026821F0010142E8C9
:102C3000051373B3016851E8051F026821F0010113
:102C400042E805132BB3016851E8051F026821F023
:102C5000010142E80513002BDAD11AE0016851E8BE
:102C6000051F026821F0400142E80513DBB101684D
:102C700051E8051F026821F0400142E8051393B1B5
:102C8000016851E8051F026821F0400142E8051380
:102C90004BB1016851E8051F026821F0400142E88C
:102CA0000513002BDAD1202180F8421000210163A6
:102CB000016851E8031F026821F0100142E8031384
:102CC000DBB1016851E8031F026821F0100142E8FE
:102CD000031393B1016851E8031F026821F010014A
:102CE00042E803134BB1016851E8031F026821F069
:102CF000100142E80313002BDAD1C16B04460846E9
:102D0000FEF70AF9204602214163818DC28D891A9E
:102D100089B202B0BDE8B040FFF79CBE8D427FF49F
:102D2000FDAED269B2F5807F7FF4F8AE0222426335
:102D300002B0BDE8B040FFF78DBE00BF436C43F06A
:102D400001034364530706D5BEF1000F03D0436C63
:102D500043F002034364930706D5BEF1000F03D08E
:102D6000436C43F004034364BCF1000F06D55EEAF4
:102D7000050303D0436C43F008034364436C002B0A
:102D80003FF4CCAE920605D525B1044600F0FCFC1C
:102D9000216820464969426C01F0400102F00802B6
:102DA000891800F0B98000BF016851E8031F02686C
:102DB00021F4907142E80313BBB3016851E8031F8B
:102DC000026821F4907142E8031373B3016851E87B
:102DD000031F026821F4907142E803132BB30168CA
:102DE00051E8031F026821F4907142E80313002B9D
:102DF000DAD11AE0016851E8051F026821F00101EB
:102E000042E80513DBB1016851E8051F026821F0B3
:102E1000010142E8051393B1016851E8051F0268FA
:102E200021F0010142E805134BB1016851E8051F8B
:102E3000026821F0010142E80513002BDAD1016B91
:102E4000012924D1016851E8031F026821F0100113
:102E500042E80313DBB1016851E8031F026821F067
:102E6000100142E8031393B1016851E8031F02689F
:102E700021F0100142E803134BB1016851E8031F30
:102E8000026821F0100142E80313002BDAD120215F
:102E900080F842100021016301684969490640F148
:102EA000C380016851E8051F026821F0400142E833
:102EB0000513DBB1016851E8051F026821F04001EC
:102EC00042E8051393B1016851E8051F026821F03B
:102ED000400142E805134BB1016851E8051F026843
:102EE00021F0400142E80513002BDAD1C16B002923
:102EF00000F09A8043F24952C0F6000204460846A8
:102F00000A65FEF751F800283FF408AEE06B016D4A
:102F100002B0BDE8B04008470446FFF79DFD002021
:102F2000606402B0B0BD00BF891A00BF026852E8F9
:102F3000032F036822F4907243E80325BDB30268AF
:102F400052E8032F036822F4907243E8032575B317
:102F5000026852E8032F036822F4907243E80325C5
:102F60002DB3026852E8032F036822F4907243E8FD
:102F70000325002DDAD11AE0026852E8052F036814
:102F800022F0010243E80525DDB1026852E8052F71
:102F9000036822F0010243E8052595B1026852E872
:102FA000052F036822F0010243E805254DB10268B0
:102FB00052E8052F036822F0010243E80525002DA1
:102FC000DAD1202280F8422000220263026852E80F
:102FD000032F036822F0100243E80325DDB10268E5
:102FE00052E8032F036822F0100243E8032595B14D
:102FF000026852E8032F036822F0100243E8032519
:103000004DB1026852E8032F036822F0100243E832
:103010000325002DDAD1022289B2426302B0BDE855
:10302000B040FFF717BD00BF02B0BDE8B040FFF7EA
:1030300013BD00BF026A32F8023B6FF35F234B609F
:10304000026283E5002804BF0120704710B50446E2
:1030500090F8410028B9002084F84000204600F094
:1030600021F8242084F841002068C16821F400512F
:10307000C160204600F008FC2068016921F49041FD
:103080000161416921F02A014161C16841F40051A7
:10309000C16000202021606484F8411084F842104F
:1030A000606310BD70B586B0044641F2000021682F
:1030B000C4F20100002681420596CDE9036602961E
:1030C000019601D006B070BD43F630010096C4F2FF
:1030D00002014A6900F5704042F010024A614A69F3
:1030E00002F010020092009A00960A6842F0010273
:1030F0000A60096801F00101009100994FF4C06174
:1031000001910221CDE902160321049107210591C5
:1031100001A9FEF741F940F2AC1546F2B840C2F2FF
:103120000005C4F202004FF0006140224FF48063BA
:1031300085E847002846C5E90436C5E90666C5E9BD
:103140000866FEF725F8002818BFFDF78FF925203F
:1031500001210022A563AC63FEF77EFA2520FEF76D
:1031600069FA06B070BD000090F84230202B07D1FC
:1031700000294FF0010318BF002A05D118467047F7
:1031800002231846704700BF002303638162222197
:103190008285C285436480F842100169006819B1D4
:1031A000C16841F48071C160416941F00101416130
:1031B000C16841F02001C16018467047016841F2C2
:1031C0000000C4F20100814218BF704710B540F200
:1031D0008804C2F20004A178012909D0D9BBE078A3
:1031E000BB2838D1BB2084F838000120607031E062
:1031F000617894F803C04B1CDAB22144082A63704A
:1032000081F838C027D394F83F10CC2921D194F805
:10321000391094F83A2094F83B3094F83CC01144AB
:10322000194494F83D206144114494F83E20C9B2F9
:1032300091420ED100F578404FF40051FEF77CF931
:1032400094F83900052811D0012802D1D4F83A00A9
:10325000E0600020A07040F2E420E11CC2F2000017
:103260000122BDE81040FFF77FBF00BFD4F83A004D
:1032700000EE100ABDEEC00A10EE100A2070002801
:103280004FF00000E6D140F29C21C2F20001096833
:1032900048638863DEE70000B0B590F84140202C19
:1032A0001CBF0220B0BD1346024600294FF00100AA
:1032B00018BF002B00D1B0BD4FF0000C21201162CF
:1032C0009384D384C2F844C082F841001468154640
:1032D000906B43F2D16E43F28172C0F6000EC0F6DD
:1032E0000002C0E90FE243F25552C0F60002C0E905
:1032F000132C221DFDF7FEFF30B110206864202042
:1033000085F841000120B0BD286829466FF04002D1
:10331000026000BF086850E8050F0A6840F08000AE
:1033200042E8050303B3086850E8050F0A6840F057
:10333000800042E80503BBB1086850E8050F0A6841
:1033400040F0800042E8050373B1086850E8050FBB
:103350000A6840F0800042E80503002B4FF00000AF
:1033600008BFB0BDD6E700BF0020B0BD7047000069
:1033700070470000FEE70000FEE70000FEE70000E7
:103380007047000070470000FEF7EAB870B592B0D1
:1033900006AC20463021FCF7FBFF002543F6400039
:1033A0000595CDE90355CDE901550095C4F202001C
:1033B0000168022641F080510160006800F08050F1
:1033C0000090009847F200000095C4F200000168E8
:1033D00066F38F310160006800F44040009000986F
:1033E0000120099010200A9008200E905420CDE969
:1033F0000F060420119020460696CDE90C65FEF7D5
:1034000079FA18B172B600BFFEE700BF0F20CDE910
:1034100001064FF48050CDE9040501A8022103956F
:10342000FEF756F910B172B6FEE700BF12B070BDDC
:103430004EF68850CEF20000016841F47001016040
:103440007047000040F20C20C2F20000FEF712BEEE
:10345000B0B540F2FF7E0568C4F2000E40F2000CE9
:103460007045C4F2010C1DDD40F60003C4F20003F8
:10347000984220D060451ED040F60043C4F20003BD
:10348000984218D04FF6FF73C4F2000398421DDC37
:10349000704527DCB0F1804F3CD040F20043C4F2CD
:1034A000000335E0B0F1804F05D040F20043C4F294
:1034B00000039842E6D14B6825F0700243EA02050A
:1034C0004FF6FF73C4F200039842E1DD44F2FF338C
:1034D000C4F20103984211DC60451BD044F20003A2
:1034E00014E000BF40F60003C4F20003984211D07C
:1034F00040F60043C4F200030AE000BF44F60003B4
:10350000C4F20103984205D044F20043C4F201031F
:10351000984204D1CB6825F4407243EA02050A6858
:103520008C684B696045C462826202D10969CCF83B
:103530003010026825F0800142F004021943026055
:10354000012242610160B0BD806B0021C185FFF79F
:1035500083BA0000806B01684A6990F84130212BE2
:103560002DD112F080022AD00021C184016851E8D7
:10357000031F026821F0C00142E80313DBB10168B8
:1035800051E8031F026821F0C00142E8031393B120
:10359000016851E8031F026821F0C00142E80313EB
:1035A0004BB1016851E8031F026821F0C00142E8F5
:1035B0000313002BDAD1202180F8411001684969FA
:1035C00090F84220222A40F07D8011F0400179D00D
:1035D0000021C185016851E8031F026821F4907140
:1035E00042E80313BBB3016851E8031F026821F4EA
:1035F000907142E8031373B3016851E8031F026836
:1036000021F4907142E803132BB3016851E8031FC2
:10361000026821F4907142E80313002BDAD11AE01A
:10362000016851E8051F026821F0010142E8051315
:10363000DBB1016851E8051F026821F0010142E891
:10364000051393B1016851E8051F026821F00101DB
:1036500042E805134BB1016851E8051F026821F0EB
:10366000010142E80513002BDAD1016B012924D1B5
:10367000016851E8031F026821F0100142E80313BA
:10368000DBB1016851E8031F026821F0100142E834
:10369000031393B1016851E8031F026821F0100180
:1036A00042E803134BB1016851E8031F026821F09F
:1036B000100142E80313002BDAD1202180F84210D8
:1036C00000210163416C41F010014164FFF7C4B96E
:1036D0000168806B0968C90548BFFFF747BE002134
:1036E000C18400BF016851E8051F026821F0800114
:1036F00042E8051383B3016851E8051F026821F011
:10370000800142E805133BB3016851E8051F0268D8
:1037100021F0800142E80513F3B1016851E8051F6B
:10372000026821F0800142E80513002BDAD113E092
:10373000016851E8031F026841F0400142E80313A9
:10374000002B08BF7047016851E8031F026841F071
:10375000400142E8031393B1016851E8031F026876
:1037600041F0400142E803134BB1016851E8031FE7
:10377000026841F0400142E80313002BD8D17047A2
:10378000806BFFF7F5BD000081B090F84210222950
:1037900021D183680246B3F5805F09D152F8281F12
:1037A00052F8183C002B63D003685B680AE000BF46
:1037B00052F8281F13B90369002BF5D003685B6822
:1037C00003F07F030B70116801311160C18D013965
:1037D0000A04C18502D001B0704700BF0168CA6801
:1037E00022F02002CA60CA6822F48072CA604A6964
:1037F00022F001024A61202180F842100021416339
:10380000026B012A3CD10163016851E8031F026881
:1038100021F0100142E80313DBB1016851E8031FF6
:10382000026821F0100142E8031393B1016851E8E6
:10383000031F026821F0100142E803134BB1016835
:1038400051E8031F026821F0100142E80313002B26
:10385000DAD101680A68D20606D5002200920A6809
:103860000092496800910099818D01B0FFF7F2B88C
:10387000026852686FF35F2221F8022B8162A5E78C
:1038800001B0FFF79BBC0000B0B50446006804F12E
:1038900008030ECB0569194325F440552A430261FC
:1038A0006269E3691143C268194349F20C639A43A0
:1038B0001143C1604169A26921F4407141F20043A2
:1038C000114340F48062C4F201039A42416103D182
:1038D000FDF7C4FF02E000BFFDF7ACFFE1694FF662
:1038E0009C7563681922C0F6FF75B1F5004FA0FB07
:1038F00002011FD15A00DB0FFCF7D2FC48F21F5126
:10390000C5F2EB11A0FB01235A0905F1805302FB1C
:103910000300322303EBC000A0FB01014FF4F87059
:1039200000EA111000EB0210C1F3421108442168B3
:103930008860B0BD9A009B0FFCF7B2FC48F21F51A3
:10394000C5F2EB11A0FB01235A0902FB050032234B
:1039500003EB0010A0FB0101F02000EA511000EB86
:103960000210C1F34311084421688860B0BD000013
:1039700040F2E420C2F20000FFF79AB8FEE7000030
:103980008CB040F60005C4F20205FDF7F7FDFFF725
:10399000FDFC002643F630040796CDE90566CDE927
:1039A00003660096C4F2020420684FF4005140F010
:1039B000040020602068002200F0040000900098BD
:1039C000009620684FF4005740F080002060206887
:1039D00000F08000009000980096206840F0010000
:1039E0002060206800F00100009000980096206898
:1039F00040F002002060206800F002000090009873
:103A00002846FDF7A1FD0120CDE9040603A92846BB
:103A100003970696FDF7C0FC03962068002140F44A
:103A2000800020602068002200F48000039003984A
:103A30004620FDF711FE4620FDF7FCFD40F2E42490
:103A4000A5F57840C2F200044FF4E1310C2284E87D
:103A500043002046C4E90366C4E90526E661FFF792
:103A6000F1FA18B172B600BFFEE700BF40F29C2029
:103A7000A5F50031C2F2000041F26702CDE900660F
:103A8000CDE90866CDE90666C0E90016C0E9026224
:103A900006618661FEF7C4FC10B172B6FEE700BF96
:103AA00040F29C20C2F200006946FEF713F918B1FB
:103AB00072B600BFFEE700BF602003900020CDE992
:103AC0000400079040F29C20C2F2000003A90022EB
:103AD000FEF7A8FB10B172B6FEE700BF40F29C20D3
:103AE000C2F2000003A90422FEF79CFB10B172B6DB
:103AF000FEE700BF40F29C20C2F20000FEF762FB2E
:103B000040F254200021A5F50132C2F200004FF628
:103B1000FF73C0E900210322C0E90213CDE90321AC
:103B200001220A23CDE9001101618161CDE905215E
:103B3000CDE90731CDE909210B9103A9FEF7A8F9D9
:103B400010B172B6FEE700BF40F25420C2F200008E
:103B50006946FEF7BFF818B172B600BFFEE700BFB6
:103B600040F20C20A5F54441C2F20000002640F2CC
:103B7000E733532280E84600C0E903368661FEF74A
:103B8000F3F818B172B600BFFEE700BF40F2641050
:103B90000123A5F56841C2F200000127C0F60073B9
:103BA00006964FF48032077680F82060C0E90A3626
:103BB000C76180F8306080E84600C0E9036647616D
:103BC000FDF73EF810B172B6FEE700BF0320059086
:103BD00040F264100025C2F2000003A9CDE90357AA
:103BE000FCF790FF10B172B6FEE700BF40F2E806A6
:103BF000C2F20006AA2040F29C2786F84000552019
:103C0000C2F2000786F87A0038460021FEF752FC1F
:103C100038460421FEF74EFC40F20C20C2F20000B0
:103C2000FEF7F4F840F25420C2F200003C21FEF707
:103C3000C1F940F26410C2F20000FDF7E5F840F26D
:103C4000880743F23331C2F20007C3F63371002212
:103C5000C4F2A01240F2000C40F2000E396407F1E9
:103C600050014DF20A73CCF27A4CC4F27A4E7A6467
:103C700081E820504FF07C510022C3F62343C4F268
:103C8000201286E826000021BB64002340F2000CCD
:103C9000C4F2F001CCF2FA33C4F2FA3CC6E90815DA
:103CA00040F2200141F26F20C6E9053C40F2000CD1
:103CB000C2F20001C3F683204CF6CD42C4F2E14CBF
:103CC00091ED000A9FED831AF865F061C3F64C622E
:103CD0000023C6E90EC00120CCF2E143C6E90A2563
:103CE000387020EE010AF91C20460122FD64C6E965
:103CF0000355C6E90C5387ED030AFFF735FA06F1C1
:103D0000400500BFFDF726FCB96A401A1428F9D314
:103D1000FDF720FCB86294F841002028F2D172B679
:103D2000F868C6F84100B868C6F845007869C6F872
:103D300049003869C6F84D00F869C6F85100386A7C
:103D4000C6F85500386BC6F8750096E80700C6F847
:103D5000612006F12002C6F85900C6F85D1007CAB6
:103D6000C6F86910C6F86500C6F86D20B869C6F8CF
:103D7000710062B696F8410096F8421096F843201A
:103D800096F844300844104496F84510184496F8C4
:103D90004620084496F84710104496F848200844F6
:103DA00096F84910104496F84A20084496F84B10AB
:103DB000104496F84C20084496F84D10104496F89C
:103DC0004E20084496F84F10104496F850200844AE
:103DD00096F85110104496F85220084496F8531063
:103DE000104496F85420084496F85510104496F85C
:103DF0005620084496F85710104496F85820084466
:103E000096F85910104496F85A20084496F85B101A
:103E1000104496F85C20084496F85D10104496F81B
:103E20005E20084496F85F10104496F8602008441D
:103E300096F86110104496F86220084496F86310D2
:103E4000104496F86420084496F86510104496F8DB
:103E50006620084496F86710104496F868200844D5
:103E600096F86910104496F86A20084496F86B108A
:103E7000104496F86C20084496F86D10104496F89B
:103E80006E20084496F86F10104496F8702008448D
:103E900096F87110104496F87220084496F8731042
:103EA000104496F87420084496F87510104496F85B
:103EB0007620084496F87710104496F87820084445
:103EC000104486F87900204629463B22FFF7E4F9A2
:103ED00018E700BF0000A544F1EE100A4FF6FF718D
:103EE000C0F2C03120EA010040F04070E1EE100A5B
:103EF00070470000000000000000010203040607F4
:103F000008090000000001020304FEFF000102FE98
:103F1000FF000101FEFF000101FEFF000101FEFFA5
:103F20000001020000000000000102010000020286
:103F30000200000102010000000000000202020174
:103F40000002020101000101000101000101020261
:103F50000001020202000610160006101600000002
:103F6000803F00080000002028000000F801000841
:103F7000A83F0008280000200809000018020008D7
:103F8000CDCC4C3D0000F040CDCC4C3E0000F0408C
:103F9000CDCC4C3E01000000100000000024F400D5
:083FA0000000A0400000000039
:040000050800019559
:00000001FF
